:100000000C942A000C9447000C9447000C94470071
:100010000C94F0050C9447000C9447000C94470096
:100020000C9447000C9447000C9447000C94470034
:100030000C9447000C9447000C9447000C94470024
:100040000C9447000C9447000C9447000C94470014
:100050000C94470011241FBECFE5D8E0DEBFCDBF12
:1000600011E0A0E6B0E0E4E1F2E102C005900D92FB
:10007000A230B107D9F711E0A2E0B1E001C01D92B2
:10008000A730B107E1F70E94AD040C9408090C9465
:1000900000003E9A0895379A08950E9449000E94F0
:1000A0004B00329A319A0895369A0895349A0895F9
:1000B0000E945400349BFECF0E94560084B195B13B
:1000C00008956817C0F490E09C01261B3109B9011E
:1000D000882777FD8095982F0E94C80720E030E0A0
:1000E00048EC52E40E94320720E030E040E251E464
:1000F0000E94540804C060E070E080E090E0382F77
:10010000292F862F972FA32FB22FBC01CD01089541
:100110000E945800682F70E080E090E00E94C607BF
:1001200020E030E04FE753E40E94320720E030E067
:1001300040EA50E40E945408462F572F682F792F29
:10014000CB01BA010895CF92DF92EF92FF920E9405
:1001500061006B017C010E9488009B01AC010E9440
:10016000CE0620E030E040E251E40E943207A701D1
:1001700096010E94540820E030E040E251E40E94E1
:10018000320720E030E040E853E40E9454080E9427
:10019000E800FF90EF90DF90CF90089585B58860DC
:1001A00085BD85B58F7B85BD82E68CBF85B58160B9
:1001B00085BD85B5846085BD85B5826085BD789433
:1001C00089B7806889BF089589B78F7789BF0895F7
:1001D000BB9A23B7206423BF23B7286023BF0E94A4
:1001E0009A076CBF83B7816083BF83B7846083BF86
:1001F00083B7806283BF0895FF920F931F93CF93BD
:10020000DF9380E069E00E94FB0383E690E090E0EA
:100210000E94E80313E0FF24F39409E020C0DF5FAD
:10022000D13069F4C02F87EA91E60197F1F700C059
:10023000000088E10E949602C150A9F7F0CFC02FBC
:1002400087EA91E60197F1F700C000008CE10E9477
:100250009602C150A9F7D23010F3115011F0DF2DE2
:10026000DFCFDF91CF911F910F91FF9008950E94F2
:10027000F70386E00E94960280E060E00E94FB03A4
:100280008BE690E00E94E80380E06AE00E94FB03B6
:1002900082E790E00E94E80381E060E00E94FB03B7
:1002A00089E790E00E94E80308950F931F93CF938E
:1002B000DF93CDB7DEB764970FB6F894DEBF0FBEFD
:1002C000CDBF182F042F880F982F990F990F890FE2
:1002D000860F90E0BE016F5F7F4F4AE050E00E94C2
:1002E000C308112389F480E0602F0E94FB0380E3A0
:1002F0000E946703602F6F5F80E00E94FB03CE01C6
:1003000001960E94E80308C080E0602F0E94FB0372
:10031000CE0101960E94E80364960FB6F894DEBF02
:100320000FBECDBFDF91CF911F910F910895CF9355
:10033000C82F81E066E00E94FB038C2F90E00E94B2
:10034000E803CF910895EF92FF920F931F93CF93FD
:10035000DF93C2EAD0E0EE24FF246894E4F8EC0EC8
:10036000FD1EFE0133970081FE0132971081FE01D0
:100370003197802F612F40810E941604802F612FBA
:1003800048810E9484042496CE15DF0551F7C6E902
:10039000D0E00F2EFCE0EF2EFF24F02DEC0EFD1E22
:1003A000FE0133970081FE0132971081FE013197E3
:1003B000802F612F40810E941604802F612F488179
:1003C0000E9484042496CE15DF0551F7DF91CF916A
:1003D0001F910F91FF90EF9008952F923F924F92AF
:1003E0005F926F927F928F929F92AF92BF92CF92C5
:1003F000DF92EF92FF920F931F93CF93DF9300D082
:100400000F92CDB7DEB79B838A838EE4EA81FB81AE
:10041000808380EA90E05C01882499240F2EF0EB21
:10042000CF2EF0E0DF2EF02D582E492E4DC0F801D2
:1004300031978081F801608141E00E943F040C5FA8
:100440001F4F0C151D0599F71401F5013197808197
:10045000F501608140E00E943F0404E910E0EE24D1
:10046000FF24F80131978081F8016081AE014F5F70
:100470005F4F0E9468048981882391F4C101880F2D
:10048000991F820D931D8E0D9F1D89579F4FFC0153
:100490008081EA81FB8180838981882351F417C0A0
:1004A0000894E11CF11C0C5F1F4FF3E0EF16F10400
:1004B000C1F60894811C911C84E090E0A80EB91E3E
:1004C00094E08916910419F0052D142DB0CF0F90EA
:1004D0000F900F90DF91CF911F910F91FF90EF90B0
:1004E000DF90CF90BF90AF909F908F907F906F9054
:1004F0005F904F903F902F900895CF93DF93D091CE
:10050000BB00C091BC008D2F6C2F41E00E943F04C6
:1005100083EF91E00197F1F700C000008D2F6C2F61
:1005200040E00E943F04DF91CF9108958F929F9207
:10053000AF92BF92CF92DF92EF92FF920F931F93F1
:10054000CF93DF930F2EF4EBEF2EF0E0FF2EF02D84
:10055000E70104E010E0C82EDD24AA24BB24A39404
:100560004601FE013197C501002E02C0880F991F78
:100570000A94E2F78C219D219C01002E02C0359542
:1005800027950A94E2F7A901808168810E943F04BF
:100590000F5F1F4F22960830110511F7C090BF0062
:1005A000A090C0008C2D6A2D40E00E943F040E9464
:1005B0007D02C0E0D0E001E010E0F7013197C80112
:1005C0000C2E02C0880F991F0A94E2F78821992106
:1005D0009C010C2E02C0359527950A94E2F7A901DB
:1005E0008081F70160810E943F04219622E030E083
:1005F000E20EF31EC430D10501F78C2D6A2D40E0C8
:100600000E943F040E947D0289EF90E00197F1F77C
:1006100000C00000DF91CF911F910F91FF90EF90EC
:10062000DF90CF90BF90AF909F908F9008950F93E1
:100630001F93CF93DF9385E49EE10197F1F700C00C
:100640000000C4EBD0E08E01085F1F4FFE01319720
:100650008081688141E00E9416042296C017D1076C
:10066000A9F78091BF006091C00041E00E9416048C
:100670000091BD00C091BE00802F6C2F41E00E9410
:1006800016048091BB006091BC0041E00E941604FA
:10069000802F6C2F40E00E943F0482E00E9496026F
:1006A00088E20E9496028EE00E94960281E00E94FB
:1006B00096028DEE92E00197F1F700C0000086E00F
:1006C0000E949602DF91CF911F910F9108958F9212
:1006D0009F92AF92BF92CF92DF92EF92FF920F93D1
:1006E0001F93CF93DF930F2EF4EBEF2EF0E0FF2E4E
:1006F000F02DE70104E010E0C82EDD24AA24BB247D
:10070000A3944601FE013197C501002E02C0880F57
:10071000991F0A94E2F78C219D219C01002E02C0B2
:10072000359527950A94E2F7A901808168810E9496
:100730003F040F5F1F4F22960830110511F7C0903C
:10074000BF00A090C0008C2D6A2D41E00E943F04A4
:100750000E947D02C0E0D0E001E010E0F701319797
:10076000C8010C2E02C0880F991F0A94E2F7882155
:1007700099219C010C2E02C0359527950A94E2F729
:10078000A9018081F70160810E943F04219622E047
:1007900030E0E20EF31EC430D10501F78C2D6A2D36
:1007A00041E00E943F040E947D0289EF90E00197A2
:1007B000F1F700C00000DF91CF911F910F91FF90E2
:1007C000EF90DF90CF90BF90AF909F908F90089563
:1007D000CF93DF93EC018881882331F021960E942A
:1007E000670389918823D9F7DF91CF91089581E03C
:1007F0000E9496020895823060F4603160F488238C
:1008000019F4962F905808C0813031F4962F9054E7
:1008100003C090E801C090E8892F0E94960289EFFA
:1008200090E00197F1F700C000000895413099F47D
:10083000E82FF0E0E155FF4FE081F0E0229181E008
:1008400090E0AC0102C0440F551F6A95E2F7BA016F
:10085000622B60830895E82FF0E0E155FF4FE081BF
:10086000F0E0229181E090E0AC0102C0440F551FFE
:100870006A95E2F7BA01609562236083089541307A
:1008800099F4E82FF0E0E155FF4FE081F0E020819E
:1008900081E090E0AC0102C0440F551F6A95E2F779
:1008A000BA01622B60830895E82FF0E0E155FF4F15
:1008B000E081F0E0208181E090E0AC0102C0440FD3
:1008C000551F6A95E2F7BA01609562236083089527
:1008D000E82FF0E0E155FF4FE081F0E03297208112
:1008E00030E081E090E0062E02C0880F991F0A9444
:1008F000E2F7822393239C0102C0359527956A95E0
:10090000E2F7FA0120830895413099F4E82FF0E0EE
:10091000E155FF4FE081F0E0208181E090E0AC0103
:1009200002C0440F551F6A95E2F7BA01622B60833B
:100930000895E82FF0E0E155FF4FE081F0E02081DD
:1009400081E090E0AC0102C0440F551F6A95E2F7C8
:10095000BA016095622360830895CF93DF93CDB78A
:10096000DEB72A970FB6F894DEBF0FBECDBF82E088
:10097000898385E08A838EE48B831C821D8289E1D2
:100980008E831F8281EC90E0582E88870E94170387
:100990000E9450060E94A3010E944D000E94370150
:1009A0000F2EF1EC8F2EF0E09F2EF02D0EE4772429
:1009B00073940F2EFBECEF2EF0E0FF2EF02D0F2E98
:1009C000FFEDCF2EF0E0DF2EF02D0F2EF5EDAF2E48
:1009D000F0E0BF2EF02DCE0103960E94ED01888538
:1009E00090E088159905D9F580E090E00E94E80034
:1009F0008B818332A1F18B818A3289F18B818E3494
:100A000071F18C81882389F419828B818A830B830D
:100A100089816A8144E00E9455017C8283E294EFDF
:100A20000197F1F700C0000011C08A8189838B8192
:100A30008A830B8389816A8144E00E9455011C826C
:100A400083E294EF0197F1F700C0000089819A8159
:100A5000880F282F220F220F820F890F8E838885FF
:100A600090E08E159F0531F0888590E08A159B05F2
:100A700009F072C0CE010A96BE01675F7F4F0E94E7
:100A800080068A8569854EE00E9455018A85880F17
:100A9000982F990F990F890F9985890F8F831E8140
:100AA0006F80CE0103960E94ED010E94CE00812F3F
:100AB00090E08619910999231CF4909581959F4F98
:100AC000863078F4A88680E090E00E94E80088856F
:100AD0000E9497018FE493EC0197F1F700C00000AA
:100AE0003BC08F812E8190E0821B91098B30910554
:100AF00014F0C88631C08E812F8190E0821B91094D
:100B0000863091054CF1E8868E816F810E94A300AA
:100B100088850E9497010E94CE00809103019091E8
:100B20000401A0910501B091060181342CE99207DE
:100B300020E0A20720E0B2077CF0C88610920301F3
:100B40001092040110920501109206010E94E40027
:100B500080E090E00E94E800888590E08C159D057B
:100B6000B1F488850E94970180E090E00E94E8003F
:100B700080E06EE00E94FB0389EE90E00E94E803B3
:100B80008FE493EC0197F1F700C00000FFCF8B8159
:100B9000833209F020CF8D81882369F4E8867D8235
:100BA0000B8388850E9497018FE493EC0197F1F7FE
:100BB00000C0000010CF588688850E94970180E011
:100BC0006EE00E94FB0389EE90E00E94E8038FE450
:100BD00093EC0197F1F700C000001D820B83FBCE60
:100BE0001F920F920FB60F9211248F939F93AF9382
:100BF000BF938091030190910401A0910501B091F0
:100C000006010196A11DB11D80930301909304017B
:100C1000A0930501B0930601BF91AF919F918F9171
:100C20000F900FBE0F901F9018958091EC0060916F
:100C3000ED004091EE000E9416048091EF0060915B
:100C4000F0004091F1000E9416048091F50060913F
:100C5000F6004091F7000E9416046C9A689A699A0F
:100C60006B986A9A6E9A81E064E041E00E943F04CA
:100C700008956E9A8091F2006091F3004091F40023
:100C80000E94160408958FB9779BFECF0895779B35
:100C9000FECF8FB108958FB9779BFECF8FB10895A6
:100CA0000E941506C49A80E80E94430684E00E94D0
:100CB0004306C4988FE493EC0197F1F700C000005D
:100CC0000895C49A82E00E94430680E00E94430691
:100CD000C49881E28A95F1F700000E944706C49A01
:100CE0000895C49A81E00E94430680E00E94430672
:100CF000C49881E28A95F1F700000E9447060895A2
:100D0000CF92DF92EF92FF921F93CF93DF93CDB7F5
:100D1000DEB72A970FB6F894DEBF0FBECDBF7C01B9
:100D20006B01DE011196E8EFF0E08AE001900D9290
:100D30008150E1F70E946106182F0E94710617FD8D
:100D400011951A3078F0812F64E60E94B708892F38
:100D50006AE00E94B708FE01E80FF11D8181F701EA
:100D6000808303C08981F7018083812F6AE00E941C
:100D7000B708FE01E90FF11D8181F60180832A96F3
:100D80000FB6F894DEBF0FBECDBFDF91CF911F919C
:100D9000FF90EF90DF90CF9008955058BB27AA277F
:100DA0000ED048C139D130F03ED120F031F49F3F10
:100DB00011F41EF42EC10EF4E095E7FB24C1E92FD7
:100DC0004AD180F3BA17620773078407950718F0B2
:100DD00071F49EF562C10EF4E0950B2EBA2FA02D92
:100DE0000B01B90190010C01CA01A0011124FF27D8
:100DF000591B99F0593F50F4503E68F11A16F040D3
:100E0000A22F232F342F4427585FF3CF46953795D1
:100E10002795A795F0405395C9F77EF41F16BA0B96
:100E2000620B730B840BBAF09150A1F0FF0FBB1F44
:100E3000661F771F881FC2F70EC0BA0F621F731F8D
:100E4000841F48F4879577956795B795F7959E3FEA
:100E500008F0B3CF9395880F08F09927EE0F979578
:100E6000879508950CD0E6C0DED040F0D5D030F0A4
:100E700021F45F3F19F0C7C0511110C1CAC0EBD0B7
:100E800098F39923C9F35523B1F3951B550BBB2751
:100E9000AA2762177307840738F09F5F5F4F220FFE
:100EA000331F441FAA1FA9F333D00E2E3AF0E0E8F7
:100EB00030D091505040E695001CCAF729D0FE2F43
:100EC00027D0660F771F881FBB1F261737074807D5
:100ED000AB07B0E809F0BB0B802DBF01FF2793588B
:100EE0005F4F2AF09E3F510568F08DC0D7C05F3F2D
:100EF000ECF3983EDCF3869577956795B795F79573
:100F00009F5FC9F7880F911D9695879597F908956A
:100F1000E1E0660F771F881FBB1F62177307840706
:100F2000BA0720F0621B730B840BBA0BEE1F88F715
:100F3000E095089598D088F09F5790F0B92F9927A1
:100F4000B751A0F0D1F0660F771F881F991F1AF0D4
:100F5000BA95C9F712C0B13081F09FD0B1E00895C1
:100F60009CC0672F782F8827B85F39F0B93FCCF342
:100F7000869577956795B395D9F73EF490958095CA
:100F8000709561957F4F8F4F9F4F0895E89409C0EA
:100F900097FB3EF490958095709561957F4F8F4FAC
:100FA0009F4F9923A9F0F92F96E9BB279395F695C2
:100FB000879577956795B795F111F8CFFAF4BB0F40
:100FC00011F460FF1BC06F5F7F4F8F4F9F4F16C0A4
:100FD000882311F096E911C0772321F09EE8872F2E
:100FE000762F05C0662371F096E8862F70E060E0EA
:100FF0002AF09A95660F771F881FDAF7880F969563
:10100000879597F9089597F99F6780E870E060E009
:1010100008959FEF80EC089500240A941616170691
:1010200018060906089500240A94121613061406D9
:1010300005060895092E0394000C11F4882352F03C
:10104000BB0F40F4BF2B11F460FF04C06F5F7F4FF4
:101050008F4F9F4F089557FD9058440F551F59F0DB
:101060005F3F71F04795880F97FB991F61F09F3F95
:1010700079F087950895121613061406551FF2CFBE
:101080004695F1DF08C0161617061806991FF1CF0E
:1010900086957105610508940895E894BB27662735
:1010A0007727CB0197F908950BD0C4CFB5DF28F08F
:1010B000BADF18F0952309F0A6CFABCF1124EECFFD
:1010C000CADFA0F3959FD1F3950F50E0551F629FA3
:1010D000F001729FBB27F00DB11D639FAA27F00D91
:1010E000B11DAA1F649F6627B00DA11D661F829FB8
:1010F0002227B00DA11D621F739FB00DA11D621F9D
:10110000839FA00D611D221F749F3327A00D611DB9
:10111000231F849F600D211D822F762F6A2F11249B
:101120009F5750408AF0E1F088234AF0EE0FFF1FEE
:10113000BB1F661F771F881F91505040A9F79E3F25
:10114000510570F060CFAACF5F3FECF3983EDCF31F
:10115000869577956795B795F795E7959F5FC1F762
:10116000FE2B880F911D9695879597F90895991BE9
:1011700079E004C0991F961708F0961B881F7A958E
:10118000C9F780950895FB019F01E8944230C4F0AF
:101190004532B4F44A3029F497FB1EF490958195BA
:1011A0009F4F642F77270E94F408805D8A330CF0EC
:1011B000895D8193CB010097A1F716F45DE251930D
:1011C0001082C9010C94E408DC01FC01672F7191C5
:1011D0007723E1F7329704C07C916D93708362911D
:1011E000AE17BF07C8F30895AA1BBB1B51E107C088
:1011F000AA1FBB1FA617B70710F0A61BB70B881FA7
:10120000991F5A95A9F780959095BC01CD01089535
:04121000F894FFCF80
:1012140000000057656C636F6D65005345543A32A6
:1012240035004352543A2D2D0053544154453A53FA
:1012340054414E44425900010203040506070809BB
:101244002A00230204000102050001020600010233
:101254000001000201010002020100020301003B3F
:1012640038353200040005000600070307030603AF
:10127400005354414E4442592020004F504552419E
:1012840054494F4E004E4F524D414C2020200045B2
:1012940052524F5220202020002D2D000104010124
:1012A4000501010601010701000102030405060707
:0212B400080927
:00000001FF
