:100000000C942A000C9447000C9447000C94470071
:100010000C9447000C9447000C9447000C94470044
:100020000C9447000C9447000C9447000C94470034
:100030000C9447000C9447000C9447000C94470024
:100040000C9447000C9447000C9447000C94470014
:100050000C94470011241FBECFE5D8E0DEBFCDBF12
:1000600010E0A0E6B0E0E2E1F5E002C005900D92FC
:10007000A838B107D9F710E0A8E8B0E001C01D9298
:10008000A838B107E1F70E9410020C9487020C9483
:1000900000000F931F93CF93DF93082FC62FD72F06
:1000A00014E06991802F41E00E9486001150C9F749
:1000B000DF91CF911F910F910895CF93DF93CDB72B
:1000C000DEB7A8970FB6F894DEBF0FBECDBFDE0136
:1000D0001196E0E6F0E098E201900D929150E1F780
:1000E00050E0440F551F440F551F21E030E02C0F06
:1000F0003D1F420F531F0E940901A8960FB6F894A6
:10010000DEBF0FBECDBFDF91CF910895823451F194
:10011000833420F4813409F07BC007C0833409F4B0
:100120003EC0843409F074C057C0413069F42AB32A
:1001300081E090E0AC0102C0440F551F6A95E2F7E0
:10014000BA01622B6ABB08952AB381E090E0AC014A
:1001500002C0440F551F6A95E2F7BA016095622309
:100160006ABB0895413069F427B381E090E0AC01A7
:1001700002C0440F551F6A95E2F7BA01622B67BBB4
:10018000089527B381E090E0AC0102C0440F551FF1
:100190006A95E2F7BA016095622367BB0895413022
:1001A00069F424B381E090E0AC0102C0440F551F14
:1001B0006A95E2F7BA01622B64BB089524B381E02B
:1001C00090E0AC0102C0440F551F6A95E2F7BA01F6
:1001D0006095622364BB0895413069F421B381E0E6
:1001E00090E0AC0102C0440F551F6A95E2F7BA01D6
:1001F000622B61BB089521B381E090E0AC0102C0A5
:10020000440F551F6A95E2F7BA016095622361BBFE
:100210000895823469F0833420F4813409F0A7C052
:100220002FC0833409F454C0843409F0A0C078C0CE
:10023000A42FB52FE62FF72F20E030E041E050E06B
:100240008D91882361F468B3CA01008002C0880FD1
:10025000991F0A94E2F78095862388BB0AC068B389
:10026000CA01008002C0880F991F0A94E2F7862B0A
:1002700088BB2F5F3F4F31962430310509F7089531
:10028000A42FB52FE62FF72F20E030E041E050E01B
:100290008D91882361F46BB3CA01008002C0880F7E
:1002A000991F0A94E2F7809586238BBB0AC06BB333
:1002B000CA01008002C0880F991F0A94E2F7862BBA
:1002C0008BBB2F5F3F4F31962430310509F70895DE
:1002D000A42FB52FE62FF72F20E030E041E050E0CB
:1002E0008D91882361F465B3CA01008002C0880F34
:1002F000991F0A94E2F78095862385BB0AC065B3EF
:10030000CA01008002C0880F991F0A94E2F7862B69
:1003100085BB2F5F3F4F31962430310509F7089593
:10032000A42FB52FE62FF72F20E030E041E050E07A
:100330008D91882361F462B3CA01008002C0880FE6
:10034000991F0A94E2F78095862382BB0AC062B3A4
:10035000CA01008002C0880F991F0A94E2F7862B19
:1003600082BB2F5F3F4F31962430310509F7089546
:100370008234F1F0833420F4813409F04FC006C098
:10038000833441F1843409F049C036C029B381E097
:1003900090E0062E02C0880F991F0A94E2F730E021
:1003A0008223932302C0959587956A95E2F7089575
:1003B00026B381E090E0062E02C0880F991F0A94B0
:1003C000E2F730E08223932302C0959587956A95E2
:1003D000E2F7089523B381E090E0062E02C0880F73
:1003E000991F0A94E2F730E08223932302C0959587
:1003F00087956A95E2F7089520B381E090E0062E94
:1004000002C0880F991F0A94E2F730E082239323F9
:1004100002C0959587956A95E2F7089580E0089562
:10042000CF93DF9300D000D0CDB7DEB7198281E043
:100430008A8382E08B8384E08C8382E4BE016F5FD9
:100440007F4F0E94490083E460E00E946F02BE9AE1
:10045000BD9ABB24EE24AA24A3940F2EFAE0DF2E2B
:10046000F02D0F2EFBE0CF2EF02D83E460E00E94F4
:100470007602813029F4BB2019F4E394BA2C03C02E
:10048000882309F4BB2484E6E81609F4EE248E2DB3
:100490006D2D0E947B02F82E092F1C2D82E4BE01D7
:1004A0006F5F7F4F402F0E945D00C59A8FE39CE9EC
:1004B0000197F1F700C00000C59882E4BE016F5FAC
:1004C0007F4F4F2D0E945D00C69A8FE39CE90197F4
:1004D000F1F700C00000C698115001F7C6CF90E0B8
:1004E00070E040E050E00E948600089590E070E0E7
:1004F0000E94B8010895991B79E004C0991F9617CE
:1005000008F0961B881F7A95C9F780950895F8948E
:02051000FFCF1B
:1005120000000000010000000001000001010000D5
:1005220000000100010001000001010001010100C1
:080532000000000101000001BE
:00000001FF
